{
  "_format": "hh-sol-artifact-1",
  "contractName": "CryptoSocialNetwork",
  "sourceName": "contracts/CryptoSocialNetwork.sol",
  "abi": [
    {
      "inputs": [],
      "stateMutability": "nonpayable",
      "type": "constructor"
    },
    {
      "anonymous": false,
      "inputs": [
        {
          "indexed": true,
          "internalType": "address",
          "name": "owner",
          "type": "address"
        },
        {
          "indexed": true,
          "internalType": "address",
          "name": "approved",
          "type": "address"
        },
        {
          "indexed": true,
          "internalType": "uint256",
          "name": "tokenId",
          "type": "uint256"
        }
      ],
      "name": "Approval",
      "type": "event"
    },
    {
      "anonymous": false,
      "inputs": [
        {
          "indexed": true,
          "internalType": "address",
          "name": "owner",
          "type": "address"
        },
        {
          "indexed": true,
          "internalType": "address",
          "name": "operator",
          "type": "address"
        },
        {
          "indexed": false,
          "internalType": "bool",
          "name": "approved",
          "type": "bool"
        }
      ],
      "name": "ApprovalForAll",
      "type": "event"
    },
    {
      "anonymous": false,
      "inputs": [
        {
          "indexed": false,
          "internalType": "uint256",
          "name": "id",
          "type": "uint256"
        },
        {
          "indexed": false,
          "internalType": "string",
          "name": "hash",
          "type": "string"
        },
        {
          "indexed": false,
          "internalType": "uint256",
          "name": "tipAmount",
          "type": "uint256"
        },
        {
          "indexed": false,
          "internalType": "address payable",
          "name": "author",
          "type": "address"
        }
      ],
      "name": "PostCreated",
      "type": "event"
    },
    {
      "anonymous": false,
      "inputs": [
        {
          "indexed": false,
          "internalType": "uint256",
          "name": "id",
          "type": "uint256"
        },
        {
          "indexed": false,
          "internalType": "string",
          "name": "hash",
          "type": "string"
        },
        {
          "indexed": false,
          "internalType": "uint256",
          "name": "tipAmount",
          "type": "uint256"
        },
        {
          "indexed": false,
          "internalType": "address payable",
          "name": "author",
          "type": "address"
        }
      ],
      "name": "PostTipped",
      "type": "event"
    },
    {
      "anonymous": false,
      "inputs": [
        {
          "indexed": true,
          "internalType": "address",
          "name": "from",
          "type": "address"
        },
        {
          "indexed": true,
          "internalType": "address",
          "name": "to",
          "type": "address"
        },
        {
          "indexed": true,
          "internalType": "uint256",
          "name": "tokenId",
          "type": "uint256"
        }
      ],
      "name": "Transfer",
      "type": "event"
    },
    {
      "inputs": [
        {
          "internalType": "address",
          "name": "to",
          "type": "address"
        },
        {
          "internalType": "uint256",
          "name": "tokenId",
          "type": "uint256"
        }
      ],
      "name": "approve",
      "outputs": [],
      "stateMutability": "nonpayable",
      "type": "function"
    },
    {
      "inputs": [
        {
          "internalType": "address",
          "name": "owner",
          "type": "address"
        }
      ],
      "name": "balanceOf",
      "outputs": [
        {
          "internalType": "uint256",
          "name": "",
          "type": "uint256"
        }
      ],
      "stateMutability": "view",
      "type": "function"
    },
    {
      "inputs": [],
      "name": "getAllPosts",
      "outputs": [
        {
          "components": [
            {
              "internalType": "uint256",
              "name": "id",
              "type": "uint256"
            },
            {
              "internalType": "string",
              "name": "hash",
              "type": "string"
            },
            {
              "internalType": "uint256",
              "name": "tipAmount",
              "type": "uint256"
            },
            {
              "internalType": "address payable",
              "name": "author",
              "type": "address"
            }
          ],
          "internalType": "struct CryptoSocialNetwork.Post[]",
          "name": "",
          "type": "tuple[]"
        }
      ],
      "stateMutability": "view",
      "type": "function"
    },
    {
      "inputs": [
        {
          "internalType": "uint256",
          "name": "tokenId",
          "type": "uint256"
        }
      ],
      "name": "getApproved",
      "outputs": [
        {
          "internalType": "address",
          "name": "",
          "type": "address"
        }
      ],
      "stateMutability": "view",
      "type": "function"
    },
    {
      "inputs": [],
      "name": "getMyNfts",
      "outputs": [
        {
          "internalType": "uint256[]",
          "name": "",
          "type": "uint256[]"
        }
      ],
      "stateMutability": "view",
      "type": "function"
    },
    {
      "inputs": [
        {
          "internalType": "address",
          "name": "owner",
          "type": "address"
        },
        {
          "internalType": "address",
          "name": "operator",
          "type": "address"
        }
      ],
      "name": "isApprovedForAll",
      "outputs": [
        {
          "internalType": "bool",
          "name": "",
          "type": "bool"
        }
      ],
      "stateMutability": "view",
      "type": "function"
    },
    {
      "inputs": [
        {
          "internalType": "string",
          "name": "_tokenURI",
          "type": "string"
        }
      ],
      "name": "mint",
      "outputs": [
        {
          "internalType": "uint256",
          "name": "",
          "type": "uint256"
        }
      ],
      "stateMutability": "nonpayable",
      "type": "function"
    },
    {
      "inputs": [],
      "name": "name",
      "outputs": [
        {
          "internalType": "string",
          "name": "",
          "type": "string"
        }
      ],
      "stateMutability": "view",
      "type": "function"
    },
    {
      "inputs": [
        {
          "internalType": "uint256",
          "name": "tokenId",
          "type": "uint256"
        }
      ],
      "name": "ownerOf",
      "outputs": [
        {
          "internalType": "address",
          "name": "",
          "type": "address"
        }
      ],
      "stateMutability": "view",
      "type": "function"
    },
    {
      "inputs": [],
      "name": "postCount",
      "outputs": [
        {
          "internalType": "uint256",
          "name": "",
          "type": "uint256"
        }
      ],
      "stateMutability": "view",
      "type": "function"
    },
    {
      "inputs": [
        {
          "internalType": "uint256",
          "name": "",
          "type": "uint256"
        }
      ],
      "name": "posts",
      "outputs": [
        {
          "internalType": "uint256",
          "name": "id",
          "type": "uint256"
        },
        {
          "internalType": "string",
          "name": "hash",
          "type": "string"
        },
        {
          "internalType": "uint256",
          "name": "tipAmount",
          "type": "uint256"
        },
        {
          "internalType": "address payable",
          "name": "author",
          "type": "address"
        }
      ],
      "stateMutability": "view",
      "type": "function"
    },
    {
      "inputs": [
        {
          "internalType": "address",
          "name": "",
          "type": "address"
        }
      ],
      "name": "profileNFTs",
      "outputs": [
        {
          "internalType": "uint256",
          "name": "",
          "type": "uint256"
        }
      ],
      "stateMutability": "view",
      "type": "function"
    },
    {
      "inputs": [
        {
          "internalType": "address",
          "name": "from",
          "type": "address"
        },
        {
          "internalType": "address",
          "name": "to",
          "type": "address"
        },
        {
          "internalType": "uint256",
          "name": "tokenId",
          "type": "uint256"
        }
      ],
      "name": "safeTransferFrom",
      "outputs": [],
      "stateMutability": "nonpayable",
      "type": "function"
    },
    {
      "inputs": [
        {
          "internalType": "address",
          "name": "from",
          "type": "address"
        },
        {
          "internalType": "address",
          "name": "to",
          "type": "address"
        },
        {
          "internalType": "uint256",
          "name": "tokenId",
          "type": "uint256"
        },
        {
          "internalType": "bytes",
          "name": "_data",
          "type": "bytes"
        }
      ],
      "name": "safeTransferFrom",
      "outputs": [],
      "stateMutability": "nonpayable",
      "type": "function"
    },
    {
      "inputs": [
        {
          "internalType": "address",
          "name": "operator",
          "type": "address"
        },
        {
          "internalType": "bool",
          "name": "approved",
          "type": "bool"
        }
      ],
      "name": "setApprovalForAll",
      "outputs": [],
      "stateMutability": "nonpayable",
      "type": "function"
    },
    {
      "inputs": [
        {
          "internalType": "uint256",
          "name": "_id",
          "type": "uint256"
        }
      ],
      "name": "setProfileNFT",
      "outputs": [],
      "stateMutability": "nonpayable",
      "type": "function"
    },
    {
      "inputs": [
        {
          "internalType": "bytes4",
          "name": "interfaceId",
          "type": "bytes4"
        }
      ],
      "name": "supportsInterface",
      "outputs": [
        {
          "internalType": "bool",
          "name": "",
          "type": "bool"
        }
      ],
      "stateMutability": "view",
      "type": "function"
    },
    {
      "inputs": [],
      "name": "symbol",
      "outputs": [
        {
          "internalType": "string",
          "name": "",
          "type": "string"
        }
      ],
      "stateMutability": "view",
      "type": "function"
    },
    {
      "inputs": [
        {
          "internalType": "uint256",
          "name": "_id",
          "type": "uint256"
        }
      ],
      "name": "tipPostOwner",
      "outputs": [],
      "stateMutability": "payable",
      "type": "function"
    },
    {
      "inputs": [],
      "name": "tokenCount",
      "outputs": [
        {
          "internalType": "uint256",
          "name": "",
          "type": "uint256"
        }
      ],
      "stateMutability": "view",
      "type": "function"
    },
    {
      "inputs": [
        {
          "internalType": "uint256",
          "name": "tokenId",
          "type": "uint256"
        }
      ],
      "name": "tokenURI",
      "outputs": [
        {
          "internalType": "string",
          "name": "",
          "type": "string"
        }
      ],
      "stateMutability": "view",
      "type": "function"
    },
    {
      "inputs": [
        {
          "internalType": "address",
          "name": "from",
          "type": "address"
        },
        {
          "internalType": "address",
          "name": "to",
          "type": "address"
        },
        {
          "internalType": "uint256",
          "name": "tokenId",
          "type": "uint256"
        }
      ],
      "name": "transferFrom",
      "outputs": [],
      "stateMutability": "nonpayable",
      "type": "function"
    },
    {
      "inputs": [
        {
          "internalType": "string",
          "name": "_postHash",
          "type": "string"
        }
      ],
      "name": "uploadPost",
      "outputs": [],
      "stateMutability": "nonpayable",
      "type": "function"
    }
  ],
  "bytecode": "0x60806040523480156200001157600080fd5b506040518060400160405280601381526020017f43727970746f536f6369616c4e6574776f726b000000000000000000000000008152506040518060400160405280600381526020017f43534e0000000000000000000000000000000000000000000000000000000000815250816000908051906020019062000096929190620000b8565b508060019080519060200190620000af929190620000b8565b505050620001cd565b828054620000c69062000168565b90600052602060002090601f016020900481019282620000ea576000855562000136565b82601f106200010557805160ff191683800117855562000136565b8280016001018555821562000136579182015b828111156200013557825182559160200191906001019062000118565b5b50905062000145919062000149565b5090565b5b80821115620001645760008160009055506001016200014a565b5090565b600060028204905060018216806200018157607f821691505b602082108114156200019857620001976200019e565b5b50919050565b7f4e487b7100000000000000000000000000000000000000000000000000000000600052602260045260246000fd5b613e8680620001dd6000396000f3fe6080604052600436106101405760003560e01c80636352211e116100b6578063bdd05adb1161006f578063bdd05adb14610471578063c321c6e91461049a578063c87b56dd146104d7578063d6313c0614610514578063d85d3d2714610530578063e985e9c51461056d57610140565b80636352211e1461034f57806370a082311461038c57806395d89b41146103c95780639f181b5e146103f4578063a22cb4651461041f578063b88d4fde1461044857610140565b80630b1e7f83116101085780630b1e7f831461023e57806317906c2e1461027e57806320070031146102a957806323b872dd146102d257806330561100146102fb57806342842e0e1461032657610140565b806301ffc9a714610145578063047b07bf1461018257806306fdde03146101ad578063081812fc146101d8578063095ea7b314610215575b600080fd5b34801561015157600080fd5b5061016c60048036038101906101679190612930565b6105aa565b6040516101799190613041565b60405180910390f35b34801561018e57600080fd5b5061019761068c565b6040516101a4919061301f565b60405180910390f35b3480156101b957600080fd5b506101c26107e2565b6040516101cf919061305c565b60405180910390f35b3480156101e457600080fd5b506101ff60048036038101906101fa91906129c3565b610874565b60405161020c9190612f96565b60405180910390f35b34801561022157600080fd5b5061023c600480360381019061023791906128f4565b6108f9565b005b34801561024a57600080fd5b50610265600480360381019061026091906129c3565b610a11565b6040516102759493929190613385565b60405180910390f35b34801561028a57600080fd5b50610293610ae9565b6040516102a0919061331e565b60405180910390f35b3480156102b557600080fd5b506102d060048036038101906102cb91906129c3565b610aef565b005b3480156102de57600080fd5b506102f960048036038101906102f491906127ee565b610bac565b005b34801561030757600080fd5b50610310610c0c565b60405161031d9190612ffd565b60405180910390f35b34801561033257600080fd5b5061034d600480360381019061034891906127ee565b610e1f565b005b34801561035b57600080fd5b50610376600480360381019061037191906129c3565b610e3f565b6040516103839190612f96565b60405180910390f35b34801561039857600080fd5b506103b360048036038101906103ae9190612789565b610ef1565b6040516103c0919061331e565b60405180910390f35b3480156103d557600080fd5b506103de610fa9565b6040516103eb919061305c565b60405180910390f35b34801561040057600080fd5b5061040961103b565b604051610416919061331e565b60405180910390f35b34801561042b57600080fd5b50610446600480360381019061044191906128b8565b611041565b005b34801561045457600080fd5b5061046f600480360381019061046a919061283d565b611057565b005b34801561047d57600080fd5b5061049860048036038101906104939190612982565b6110b9565b005b3480156104a657600080fd5b506104c160048036038101906104bc9190612789565b61126d565b6040516104ce919061331e565b60405180910390f35b3480156104e357600080fd5b506104fe60048036038101906104f991906129c3565b611285565b60405161050b919061305c565b60405180910390f35b61052e600480360381019061052991906129c3565b6113d7565b005b34801561053c57600080fd5b5061055760048036038101906105529190612982565b6116f9565b604051610564919061331e565b60405180910390f35b34801561057957600080fd5b50610594600480360381019061058f91906127b2565b611740565b6040516105a19190613041565b60405180910390f35b60007f80ac58cd000000000000000000000000000000000000000000000000000000007bffffffffffffffffffffffffffffffffffffffffffffffffffffffff1916827bffffffffffffffffffffffffffffffffffffffffffffffffffffffff1916148061067557507f5b5e139f000000000000000000000000000000000000000000000000000000007bffffffffffffffffffffffffffffffffffffffffffffffffffffffff1916827bffffffffffffffffffffffffffffffffffffffffffffffffffffffff1916145b806106855750610684826117d4565b5b9050919050565b6060600061069933610ef1565b67ffffffffffffffff8111156106d8577f4e487b7100000000000000000000000000000000000000000000000000000000600052604160045260246000fd5b6040519080825280602002602001820160405280156107065781602001602082028036833780820191505090505b509050600080600754905060005b818110156107d8573373ffffffffffffffffffffffffffffffffffffffff16610748600183610743919061351e565b610e3f565b73ffffffffffffffffffffffffffffffffffffffff1614156107c557600181610771919061351e565b8484815181106107aa577f4e487b7100000000000000000000000000000000000000000000000000000000600052603260045260246000fd5b60200260200101818152505082806107c190613716565b9350505b80806107d090613716565b915050610714565b5082935050505090565b6060600080546107f1906136b3565b80601f016020809104026020016040519081016040528092919081815260200182805461081d906136b3565b801561086a5780601f1061083f5761010080835404028352916020019161086a565b820191906000526020600020905b81548152906001019060200180831161084d57829003601f168201915b5050505050905090565b600061087f8261183e565b6108be576040517f08c379a00000000000000000000000000000000000000000000000000000000081526004016108b59061321e565b60405180910390fd5b6004600083815260200190815260200160002060009054906101000a900473ffffffffffffffffffffffffffffffffffffffff169050919050565b600061090482610e3f565b90508073ffffffffffffffffffffffffffffffffffffffff168373ffffffffffffffffffffffffffffffffffffffff161415610975576040517f08c379a000000000000000000000000000000000000000000000000000000000815260040161096c9061327e565b60405180910390fd5b8073ffffffffffffffffffffffffffffffffffffffff166109946118aa565b73ffffffffffffffffffffffffffffffffffffffff1614806109c357506109c2816109bd6118aa565b611740565b5b610a02576040517f08c379a00000000000000000000000000000000000000000000000000000000081526004016109f99061313e565b60405180910390fd5b610a0c83836118b2565b505050565b6009602052806000526040600020600091509050806000015490806001018054610a3a906136b3565b80601f0160208091040260200160405190810160405280929190818152602001828054610a66906136b3565b8015610ab35780601f10610a8857610100808354040283529160200191610ab3565b820191906000526020600020905b815481529060010190602001808311610a9657829003601f168201915b5050505050908060020154908060030160009054906101000a900473ffffffffffffffffffffffffffffffffffffffff16905084565b60085481565b3373ffffffffffffffffffffffffffffffffffffffff16610b0f82610e3f565b73ffffffffffffffffffffffffffffffffffffffff1614610b65576040517f08c379a0000000000000000000000000000000000000000000000000000000008152600401610b5c9061329e565b60405180910390fd5b80600a60003373ffffffffffffffffffffffffffffffffffffffff1673ffffffffffffffffffffffffffffffffffffffff1681526020019081526020016000208190555050565b610bbd610bb76118aa565b8261196b565b610bfc576040517f08c379a0000000000000000000000000000000000000000000000000000000008152600401610bf3906132de565b60405180910390fd5b610c07838383611a49565b505050565b6060600060085467ffffffffffffffff811115610c52577f4e487b7100000000000000000000000000000000000000000000000000000000600052604160045260246000fd5b604051908082528060200260200182016040528015610c8b57816020015b610c7861256f565b815260200190600190039081610c705790505b50905060005b8151811015610e175760096000600183610cab919061351e565b815260200190815260200160002060405180608001604052908160008201548152602001600182018054610cde906136b3565b80601f0160208091040260200160405190810160405280929190818152602001828054610d0a906136b3565b8015610d575780601f10610d2c57610100808354040283529160200191610d57565b820191906000526020600020905b815481529060010190602001808311610d3a57829003601f168201915b50505050508152602001600282015481526020016003820160009054906101000a900473ffffffffffffffffffffffffffffffffffffffff1673ffffffffffffffffffffffffffffffffffffffff1673ffffffffffffffffffffffffffffffffffffffff1681525050828281518110610df9577f4e487b7100000000000000000000000000000000000000000000000000000000600052603260045260246000fd5b60200260200101819052508080610e0f90613716565b915050610c91565b508091505090565b610e3a83838360405180602001604052806000815250611057565b505050565b6000806002600084815260200190815260200160002060009054906101000a900473ffffffffffffffffffffffffffffffffffffffff169050600073ffffffffffffffffffffffffffffffffffffffff168173ffffffffffffffffffffffffffffffffffffffff161415610ee8576040517f08c379a0000000000000000000000000000000000000000000000000000000008152600401610edf9061317e565b60405180910390fd5b80915050919050565b60008073ffffffffffffffffffffffffffffffffffffffff168273ffffffffffffffffffffffffffffffffffffffff161415610f62576040517f08c379a0000000000000000000000000000000000000000000000000000000008152600401610f599061315e565b60405180910390fd5b600360008373ffffffffffffffffffffffffffffffffffffffff1673ffffffffffffffffffffffffffffffffffffffff168152602001908152602001600020549050919050565b606060018054610fb8906136b3565b80601f0160208091040260200160405190810160405280929190818152602001828054610fe4906136b3565b80156110315780601f1061100657610100808354040283529160200191611031565b820191906000526020600020905b81548152906001019060200180831161101457829003601f168201915b5050505050905090565b60075481565b61105361104c6118aa565b8383611cb0565b5050565b6110686110626118aa565b8361196b565b6110a7576040517f08c379a000000000000000000000000000000000000000000000000000000000815260040161109e906132de565b60405180910390fd5b6110b384848484611e1d565b50505050565b60006110c433610ef1565b11611104576040517f08c379a00000000000000000000000000000000000000000000000000000000081526004016110fb906132fe565b60405180910390fd5b6000815111611148576040517f08c379a000000000000000000000000000000000000000000000000000000000815260040161113f9061323e565b60405180910390fd5b6008600081548092919061115b90613716565b919050555060405180608001604052806008548152602001828152602001600081526020013373ffffffffffffffffffffffffffffffffffffffff168152506009600060085481526020019081526020016000206000820151816000015560208201518160010190805190602001906111d59291906125ad565b506040820151816002015560608201518160030160006101000a81548173ffffffffffffffffffffffffffffffffffffffff021916908373ffffffffffffffffffffffffffffffffffffffff1602179055509050507fc66336337a24e513f909b3b25119854dba8385d51307dbc7d31d1b2805e19c7e600854826000336040516112629493929190613339565b60405180910390a150565b600a6020528060005260406000206000915090505481565b60606112908261183e565b6112cf576040517f08c379a00000000000000000000000000000000000000000000000000000000081526004016112c6906131fe565b60405180910390fd5b60006006600084815260200190815260200160002080546112ef906136b3565b80601f016020809104026020016040519081016040528092919081815260200182805461131b906136b3565b80156113685780601f1061133d57610100808354040283529160200191611368565b820191906000526020600020905b81548152906001019060200180831161134b57829003601f168201915b505050505090506000611379611e79565b905060008151141561138f5781925050506113d2565b6000825111156113c45780826040516020016113ac929190612f72565b604051602081830303815290604052925050506113d2565b6113cd84611e90565b925050505b919050565b6000811180156113e957506008548111155b611428576040517f08c379a000000000000000000000000000000000000000000000000000000000815260040161141f906131be565b60405180910390fd5b60006009600083815260200190815260200160002060405180608001604052908160008201548152602001600182018054611462906136b3565b80601f016020809104026020016040519081016040528092919081815260200182805461148e906136b3565b80156114db5780601f106114b0576101008083540402835291602001916114db565b820191906000526020600020905b8154815290600101906020018083116114be57829003601f168201915b50505050508152602001600282015481526020016003820160009054906101000a900473ffffffffffffffffffffffffffffffffffffffff1673ffffffffffffffffffffffffffffffffffffffff1673ffffffffffffffffffffffffffffffffffffffff168152505090503373ffffffffffffffffffffffffffffffffffffffff16816060015173ffffffffffffffffffffffffffffffffffffffff1614156115b9576040517f08c379a00000000000000000000000000000000000000000000000000000000081526004016115b0906132be565b60405180910390fd5b806060015173ffffffffffffffffffffffffffffffffffffffff166108fc349081150290604051600060405180830381858888f19350505050158015611603573d6000803e3d6000fd5b503481604001818151611616919061351e565b9150818152505080600960008481526020019081526020016000206000820151816000015560208201518160010190805190602001906116579291906125ad565b506040820151816002015560608201518160030160006101000a81548173ffffffffffffffffffffffffffffffffffffffff021916908373ffffffffffffffffffffffffffffffffffffffff1602179055509050507f20988fe475351e75813672abada1dddb7ac67cbbeb81e61e1160b8329d8cdf1c828260200151836040015184606001516040516116ed9493929190613385565b60405180910390a15050565b60006007600081548092919061170e90613716565b919050555061171f33600754611f37565b61172b60075483611f55565b611736600754610aef565b6007549050919050565b6000600560008473ffffffffffffffffffffffffffffffffffffffff1673ffffffffffffffffffffffffffffffffffffffff16815260200190815260200160002060008373ffffffffffffffffffffffffffffffffffffffff1673ffffffffffffffffffffffffffffffffffffffff16815260200190815260200160002060009054906101000a900460ff16905092915050565b60007f01ffc9a7000000000000000000000000000000000000000000000000000000007bffffffffffffffffffffffffffffffffffffffffffffffffffffffff1916827bffffffffffffffffffffffffffffffffffffffffffffffffffffffff1916149050919050565b60008073ffffffffffffffffffffffffffffffffffffffff166002600084815260200190815260200160002060009054906101000a900473ffffffffffffffffffffffffffffffffffffffff1673ffffffffffffffffffffffffffffffffffffffff1614159050919050565b600033905090565b816004600083815260200190815260200160002060006101000a81548173ffffffffffffffffffffffffffffffffffffffff021916908373ffffffffffffffffffffffffffffffffffffffff160217905550808273ffffffffffffffffffffffffffffffffffffffff1661192583610e3f565b73ffffffffffffffffffffffffffffffffffffffff167f8c5be1e5ebec7d5bd14f71427d1e84f3dd0314c0f7b2291e5b200ac8c7c3b92560405160405180910390a45050565b60006119768261183e565b6119b5576040517f08c379a00000000000000000000000000000000000000000000000000000000081526004016119ac9061311e565b60405180910390fd5b60006119c083610e3f565b90508073ffffffffffffffffffffffffffffffffffffffff168473ffffffffffffffffffffffffffffffffffffffff161480611a2f57508373ffffffffffffffffffffffffffffffffffffffff16611a1784610874565b73ffffffffffffffffffffffffffffffffffffffff16145b80611a405750611a3f8185611740565b5b91505092915050565b8273ffffffffffffffffffffffffffffffffffffffff16611a6982610e3f565b73ffffffffffffffffffffffffffffffffffffffff1614611abf576040517f08c379a0000000000000000000000000000000000000000000000000000000008152600401611ab69061309e565b60405180910390fd5b600073ffffffffffffffffffffffffffffffffffffffff168273ffffffffffffffffffffffffffffffffffffffff161415611b2f576040517f08c379a0000000000000000000000000000000000000000000000000000000008152600401611b26906130de565b60405180910390fd5b611b3a838383611fc9565b611b456000826118b2565b6001600360008573ffffffffffffffffffffffffffffffffffffffff1673ffffffffffffffffffffffffffffffffffffffff1681526020019081526020016000206000828254611b9591906135a5565b925050819055506001600360008473ffffffffffffffffffffffffffffffffffffffff1673ffffffffffffffffffffffffffffffffffffffff1681526020019081526020016000206000828254611bec919061351e565b92505081905550816002600083815260200190815260200160002060006101000a81548173ffffffffffffffffffffffffffffffffffffffff021916908373ffffffffffffffffffffffffffffffffffffffff160217905550808273ffffffffffffffffffffffffffffffffffffffff168473ffffffffffffffffffffffffffffffffffffffff167fddf252ad1be2c89b69c2b068fc378daa952ba7f163c4a11628f55a4df523b3ef60405160405180910390a4611cab838383611fce565b505050565b8173ffffffffffffffffffffffffffffffffffffffff168373ffffffffffffffffffffffffffffffffffffffff161415611d1f576040517f08c379a0000000000000000000000000000000000000000000000000000000008152600401611d16906130fe565b60405180910390fd5b80600560008573ffffffffffffffffffffffffffffffffffffffff1673ffffffffffffffffffffffffffffffffffffffff16815260200190815260200160002060008473ffffffffffffffffffffffffffffffffffffffff1673ffffffffffffffffffffffffffffffffffffffff16815260200190815260200160002060006101000a81548160ff0219169083151502179055508173ffffffffffffffffffffffffffffffffffffffff168373ffffffffffffffffffffffffffffffffffffffff167f17307eab39ab6107e8899845ad3d59bd9653f200f220920489ca2b5937696c3183604051611e109190613041565b60405180910390a3505050565b611e28848484611a49565b611e3484848484611fd3565b611e73576040517f08c379a0000000000000000000000000000000000000000000000000000000008152600401611e6a9061307e565b60405180910390fd5b50505050565b606060405180602001604052806000815250905090565b6060611e9b8261183e565b611eda576040517f08c379a0000000000000000000000000000000000000000000000000000000008152600401611ed19061325e565b60405180910390fd5b6000611ee4611e79565b90506000815111611f045760405180602001604052806000815250611f2f565b80611f0e8461216a565b604051602001611f1f929190612f72565b6040516020818303038152906040525b915050919050565b611f51828260405180602001604052806000815250612317565b5050565b611f5e8261183e565b611f9d576040517f08c379a0000000000000000000000000000000000000000000000000000000008152600401611f949061319e565b60405180910390fd5b80600660008481526020019081526020016000209080519060200190611fc49291906125ad565b505050565b505050565b505050565b6000611ff48473ffffffffffffffffffffffffffffffffffffffff16612372565b1561215d578373ffffffffffffffffffffffffffffffffffffffff1663150b7a0261201d6118aa565b8786866040518563ffffffff1660e01b815260040161203f9493929190612fb1565b602060405180830381600087803b15801561205957600080fd5b505af192505050801561208a57506040513d601f19601f820116820180604052508101906120879190612959565b60015b61210d573d80600081146120ba576040519150601f19603f3d011682016040523d82523d6000602084013e6120bf565b606091505b50600081511415612105576040517f08c379a00000000000000000000000000000000000000000000000000000000081526004016120fc9061307e565b60405180910390fd5b805181602001fd5b63150b7a0260e01b7bffffffffffffffffffffffffffffffffffffffffffffffffffffffff1916817bffffffffffffffffffffffffffffffffffffffffffffffffffffffff191614915050612162565b600190505b949350505050565b606060008214156121b2576040518060400160405280600181526020017f30000000000000000000000000000000000000000000000000000000000000008152509050612312565b600082905060005b600082146121e45780806121cd90613716565b915050600a826121dd9190613574565b91506121ba565b60008167ffffffffffffffff811115612226577f4e487b7100000000000000000000000000000000000000000000000000000000600052604160045260246000fd5b6040519080825280601f01601f1916602001820160405280156122585781602001600182028036833780820191505090505b5090505b6000851461230b5760018261227191906135a5565b9150600a85612280919061375f565b603061228c919061351e565b60f81b8183815181106122c8577f4e487b7100000000000000000000000000000000000000000000000000000000600052603260045260246000fd5b60200101907effffffffffffffffffffffffffffffffffffffffffffffffffffffffffffff1916908160001a905350600a856123049190613574565b945061225c565b8093505050505b919050565b6123218383612395565b61232e6000848484611fd3565b61236d576040517f08c379a00000000000000000000000000000000000000000000000000000000081526004016123649061307e565b60405180910390fd5b505050565b6000808273ffffffffffffffffffffffffffffffffffffffff163b119050919050565b600073ffffffffffffffffffffffffffffffffffffffff168273ffffffffffffffffffffffffffffffffffffffff161415612405576040517f08c379a00000000000000000000000000000000000000000000000000000000081526004016123fc906131de565b60405180910390fd5b61240e8161183e565b1561244e576040517f08c379a0000000000000000000000000000000000000000000000000000000008152600401612445906130be565b60405180910390fd5b61245a60008383611fc9565b6001600360008473ffffffffffffffffffffffffffffffffffffffff1673ffffffffffffffffffffffffffffffffffffffff16815260200190815260200160002060008282546124aa919061351e565b92505081905550816002600083815260200190815260200160002060006101000a81548173ffffffffffffffffffffffffffffffffffffffff021916908373ffffffffffffffffffffffffffffffffffffffff160217905550808273ffffffffffffffffffffffffffffffffffffffff16600073ffffffffffffffffffffffffffffffffffffffff167fddf252ad1be2c89b69c2b068fc378daa952ba7f163c4a11628f55a4df523b3ef60405160405180910390a461256b60008383611fce565b5050565b6040518060800160405280600081526020016060815260200160008152602001600073ffffffffffffffffffffffffffffffffffffffff1681525090565b8280546125b9906136b3565b90600052602060002090601f0160209004810192826125db5760008555612622565b82601f106125f457805160ff1916838001178555612622565b82800160010185558215612622579182015b82811115612621578251825591602001919060010190612606565b5b50905061262f9190612633565b5090565b5b8082111561264c576000816000905550600101612634565b5090565b600061266361265e846133f6565b6133d1565b90508281526020810184848401111561267b57600080fd5b612686848285613671565b509392505050565b60006126a161269c84613427565b6133d1565b9050828152602081018484840111156126b957600080fd5b6126c4848285613671565b509392505050565b6000813590506126db81613df4565b92915050565b6000813590506126f081613e0b565b92915050565b60008135905061270581613e22565b92915050565b60008151905061271a81613e22565b92915050565b600082601f83011261273157600080fd5b8135612741848260208601612650565b91505092915050565b600082601f83011261275b57600080fd5b813561276b84826020860161268e565b91505092915050565b60008135905061278381613e39565b92915050565b60006020828403121561279b57600080fd5b60006127a9848285016126cc565b91505092915050565b600080604083850312156127c557600080fd5b60006127d3858286016126cc565b92505060206127e4858286016126cc565b9150509250929050565b60008060006060848603121561280357600080fd5b6000612811868287016126cc565b9350506020612822868287016126cc565b925050604061283386828701612774565b9150509250925092565b6000806000806080858703121561285357600080fd5b6000612861878288016126cc565b9450506020612872878288016126cc565b935050604061288387828801612774565b925050606085013567ffffffffffffffff8111156128a057600080fd5b6128ac87828801612720565b91505092959194509250565b600080604083850312156128cb57600080fd5b60006128d9858286016126cc565b92505060206128ea858286016126e1565b9150509250929050565b6000806040838503121561290757600080fd5b6000612915858286016126cc565b925050602061292685828601612774565b9150509250929050565b60006020828403121561294257600080fd5b6000612950848285016126f6565b91505092915050565b60006020828403121561296b57600080fd5b60006129798482850161270b565b91505092915050565b60006020828403121561299457600080fd5b600082013567ffffffffffffffff8111156129ae57600080fd5b6129ba8482850161274a565b91505092915050565b6000602082840312156129d557600080fd5b60006129e384828501612774565b91505092915050565b60006129f88383612ef1565b905092915050565b6000612a0c8383612f54565b60208301905092915050565b612a21816135eb565b82525050565b612a30816135eb565b82525050565b612a3f816135d9565b82525050565b6000612a5082613478565b612a5a81856134be565b935083602082028501612a6c85613458565b8060005b85811015612aa85784840389528151612a8985826129ec565b9450612a94836134a4565b925060208a01995050600181019050612a70565b50829750879550505050505092915050565b6000612ac582613483565b612acf81856134cf565b9350612ada83613468565b8060005b83811015612b0b578151612af28882612a00565b9750612afd836134b1565b925050600181019050612ade565b5085935050505092915050565b612b21816135fd565b82525050565b6000612b328261348e565b612b3c81856134e0565b9350612b4c818560208601613680565b612b558161384c565b840191505092915050565b612b698161365f565b82525050565b6000612b7a82613499565b612b8481856134f1565b9350612b94818560208601613680565b612b9d8161384c565b840191505092915050565b6000612bb382613499565b612bbd8185613502565b9350612bcd818560208601613680565b612bd68161384c565b840191505092915050565b6000612bec82613499565b612bf68185613513565b9350612c06818560208601613680565b80840191505092915050565b6000612c1f603283613502565b9150612c2a8261385d565b604082019050919050565b6000612c42602583613502565b9150612c4d826138ac565b604082019050919050565b6000612c65601c83613502565b9150612c70826138fb565b602082019050919050565b6000612c88602483613502565b9150612c9382613924565b604082019050919050565b6000612cab601983613502565b9150612cb682613973565b602082019050919050565b6000612cce602c83613502565b9150612cd98261399c565b604082019050919050565b6000612cf1603883613502565b9150612cfc826139eb565b604082019050919050565b6000612d14602a83613502565b9150612d1f82613a3a565b604082019050919050565b6000612d37602983613502565b9150612d4282613a89565b604082019050919050565b6000612d5a602e83613502565b9150612d6582613ad8565b604082019050919050565b6000612d7d600f83613502565b9150612d8882613b27565b602082019050919050565b6000612da0602083613502565b9150612dab82613b50565b602082019050919050565b6000612dc3603183613502565b9150612dce82613b79565b604082019050919050565b6000612de6602c83613502565b9150612df182613bc8565b604082019050919050565b6000612e09601983613502565b9150612e1482613c17565b602082019050919050565b6000612e2c602f83613502565b9150612e3782613c40565b604082019050919050565b6000612e4f602183613502565b9150612e5a82613c8f565b604082019050919050565b6000612e72603683613502565b9150612e7d82613cde565b604082019050919050565b6000612e95601883613502565b9150612ea082613d2d565b602082019050919050565b6000612eb8603183613502565b9150612ec382613d56565b604082019050919050565b6000612edb602a83613502565b9150612ee682613da5565b604082019050919050565b6000608083016000830151612f096000860182612f54565b5060208301518482036020860152612f218282612b6f565b9150506040830151612f366040860182612f54565b506060830151612f496060860182612a18565b508091505092915050565b612f5d81613655565b82525050565b612f6c81613655565b82525050565b6000612f7e8285612be1565b9150612f8a8284612be1565b91508190509392505050565b6000602082019050612fab6000830184612a36565b92915050565b6000608082019050612fc66000830187612a36565b612fd36020830186612a36565b612fe06040830185612f63565b8181036060830152612ff28184612b27565b905095945050505050565b600060208201905081810360008301526130178184612a45565b905092915050565b600060208201905081810360008301526130398184612aba565b905092915050565b60006020820190506130566000830184612b18565b92915050565b600060208201905081810360008301526130768184612ba8565b905092915050565b6000602082019050818103600083015261309781612c12565b9050919050565b600060208201905081810360008301526130b781612c35565b9050919050565b600060208201905081810360008301526130d781612c58565b9050919050565b600060208201905081810360008301526130f781612c7b565b9050919050565b6000602082019050818103600083015261311781612c9e565b9050919050565b6000602082019050818103600083015261313781612cc1565b9050919050565b6000602082019050818103600083015261315781612ce4565b9050919050565b6000602082019050818103600083015261317781612d07565b9050919050565b6000602082019050818103600083015261319781612d2a565b9050919050565b600060208201905081810360008301526131b781612d4d565b9050919050565b600060208201905081810360008301526131d781612d70565b9050919050565b600060208201905081810360008301526131f781612d93565b9050919050565b6000602082019050818103600083015261321781612db6565b9050919050565b6000602082019050818103600083015261323781612dd9565b9050919050565b6000602082019050818103600083015261325781612dfc565b9050919050565b6000602082019050818103600083015261327781612e1f565b9050919050565b6000602082019050818103600083015261329781612e42565b9050919050565b600060208201905081810360008301526132b781612e65565b9050919050565b600060208201905081810360008301526132d781612e88565b9050919050565b600060208201905081810360008301526132f781612eab565b9050919050565b6000602082019050818103600083015261331781612ece565b9050919050565b60006020820190506133336000830184612f63565b92915050565b600060808201905061334e6000830187612f63565b81810360208301526133608186612ba8565b905061336f6040830185612b60565b61337c6060830184612a27565b95945050505050565b600060808201905061339a6000830187612f63565b81810360208301526133ac8186612ba8565b90506133bb6040830185612f63565b6133c86060830184612a27565b95945050505050565b60006133db6133ec565b90506133e782826136e5565b919050565b6000604051905090565b600067ffffffffffffffff8211156134115761341061381d565b5b61341a8261384c565b9050602081019050919050565b600067ffffffffffffffff8211156134425761344161381d565b5b61344b8261384c565b9050602081019050919050565b6000819050602082019050919050565b6000819050602082019050919050565b600081519050919050565b600081519050919050565b600081519050919050565b600081519050919050565b6000602082019050919050565b6000602082019050919050565b600082825260208201905092915050565b600082825260208201905092915050565b600082825260208201905092915050565b600082825260208201905092915050565b600082825260208201905092915050565b600081905092915050565b600061352982613655565b915061353483613655565b9250827fffffffffffffffffffffffffffffffffffffffffffffffffffffffffffffffff0382111561356957613568613790565b5b828201905092915050565b600061357f82613655565b915061358a83613655565b92508261359a576135996137bf565b5b828204905092915050565b60006135b082613655565b91506135bb83613655565b9250828210156135ce576135cd613790565b5b828203905092915050565b60006135e482613635565b9050919050565b60006135f682613635565b9050919050565b60008115159050919050565b60007fffffffff0000000000000000000000000000000000000000000000000000000082169050919050565b600073ffffffffffffffffffffffffffffffffffffffff82169050919050565b6000819050919050565b600061366a82613655565b9050919050565b82818337600083830152505050565b60005b8381101561369e578082015181840152602081019050613683565b838111156136ad576000848401525b50505050565b600060028204905060018216806136cb57607f821691505b602082108114156136df576136de6137ee565b5b50919050565b6136ee8261384c565b810181811067ffffffffffffffff8211171561370d5761370c61381d565b5b80604052505050565b600061372182613655565b91507fffffffffffffffffffffffffffffffffffffffffffffffffffffffffffffffff82141561375457613753613790565b5b600182019050919050565b600061376a82613655565b915061377583613655565b925082613785576137846137bf565b5b828206905092915050565b7f4e487b7100000000000000000000000000000000000000000000000000000000600052601160045260246000fd5b7f4e487b7100000000000000000000000000000000000000000000000000000000600052601260045260246000fd5b7f4e487b7100000000000000000000000000000000000000000000000000000000600052602260045260246000fd5b7f4e487b7100000000000000000000000000000000000000000000000000000000600052604160045260246000fd5b6000601f19601f8301169050919050565b7f4552433732313a207472616e7366657220746f206e6f6e20455243373231526560008201527f63656976657220696d706c656d656e7465720000000000000000000000000000602082015250565b7f4552433732313a207472616e736665722066726f6d20696e636f72726563742060008201527f6f776e6572000000000000000000000000000000000000000000000000000000602082015250565b7f4552433732313a20746f6b656e20616c7265616479206d696e74656400000000600082015250565b7f4552433732313a207472616e7366657220746f20746865207a65726f2061646460008201527f7265737300000000000000000000000000000000000000000000000000000000602082015250565b7f4552433732313a20617070726f766520746f2063616c6c657200000000000000600082015250565b7f4552433732313a206f70657261746f7220717565727920666f72206e6f6e657860008201527f697374656e7420746f6b656e0000000000000000000000000000000000000000602082015250565b7f4552433732313a20617070726f76652063616c6c6572206973206e6f74206f7760008201527f6e6572206e6f7220617070726f76656420666f7220616c6c0000000000000000602082015250565b7f4552433732313a2062616c616e636520717565727920666f7220746865207a6560008201527f726f206164647265737300000000000000000000000000000000000000000000602082015250565b7f4552433732313a206f776e657220717565727920666f72206e6f6e657869737460008201527f656e7420746f6b656e0000000000000000000000000000000000000000000000602082015250565b7f45524337323155524953746f726167653a2055524920736574206f66206e6f6e60008201527f6578697374656e7420746f6b656e000000000000000000000000000000000000602082015250565b7f496e76616c696420706f73742069640000000000000000000000000000000000600082015250565b7f4552433732313a206d696e7420746f20746865207a65726f2061646472657373600082015250565b7f45524337323155524953746f726167653a2055524920717565727920666f722060008201527f6e6f6e6578697374656e7420746f6b656e000000000000000000000000000000602082015250565b7f4552433732313a20617070726f76656420717565727920666f72206e6f6e657860008201527f697374656e7420746f6b656e0000000000000000000000000000000000000000602082015250565b7f43616e6e6f74207061737320616e20656d707479206861736800000000000000600082015250565b7f4552433732314d657461646174613a2055524920717565727920666f72206e6f60008201527f6e6578697374656e7420746f6b656e0000000000000000000000000000000000602082015250565b7f4552433732313a20617070726f76616c20746f2063757272656e74206f776e6560008201527f7200000000000000000000000000000000000000000000000000000000000000602082015250565b7f596f75206d757374206f776e204e4654207468617420796f752077616e74207460008201527f6f2075736520666f7220796f75722070726f66696c6500000000000000000000602082015250565b7f43616e6e6f742074697020796f7572206f776e20706f73740000000000000000600082015250565b7f4552433732313a207472616e736665722063616c6c6572206973206e6f74206f60008201527f776e6572206e6f7220617070726f766564000000000000000000000000000000602082015250565b7f4d757374206f776e20612043727970746f536f6369616c4e6574776f726b206e60008201527f667420746f20706f737400000000000000000000000000000000000000000000602082015250565b613dfd816135d9565b8114613e0857600080fd5b50565b613e14816135fd565b8114613e1f57600080fd5b50565b613e2b81613609565b8114613e3657600080fd5b50565b613e4281613655565b8114613e4d57600080fd5b5056fea264697066735822122059fc008ee3e3f02bffd94b59e674236268be4d56d935f751514bc3f62893074e64736f6c63430008040033",
  "linkReferences": {},
  "deployedLinkReferences": {}
}